:020000040800F2
:10000000503B0220FD0200081F500008C3480008B2
:100010001D5000085D1A0008BD5F000800000000C8
:100020000000000000000000000000009B590008D4
:100030005F1A000800000000A95000089D59000840
:100040001703000817030008170300086D51000884
:100050001703000817030008170300081703000818
:100060001703000817030008170300081703000808
:1000700017030008170300081703000817030008F8
:1000800017030008170300081703000817030008E8
:1000900017030008170300081703000817030008D8
:1000A00017030008170300081703000817030008C8
:1000B0001703000817030008815A000817030008F7
:1000C00017030008170300081703000817030008A8
:1000D00017030008915F00081703000817030008C2
:1000E00017030008AD5000081703000817030008A5
:1000F0001703000817030008170300081703000878
:100100001703000817030008170300081703000867
:100110001703000817030008170300081703000857
:100120001703000817030008170300081703000847
:100130001703000817030008170300081703000837
:100140001703000817030008170300081703000827
:100150001703000817030008170300081703000817
:100160001703000817030008170300081703000807
:100170001703000817030008170300080000000019
:1001800017030008170300081703000817030008E7
:1001900017030008170300081703000817030008D7
:1001A00017030008170300081703000800F002F8FF
:1001B00000F07AF80AA090E8000C82448344AAF187
:1001C0000107DA4501D100F06FF8AFF2090EBAE885
:1001D0000F0013F0010F18BFFB1A43F0010318477B
:1001E000CCC60000ECC600000A444FF0000C10F82A
:1001F000013B13F0070408BF10F8014B1D1108BFA5
:1002000010F8015B641E05D010F8016B641E01F844
:10021000016BF9D113F0080F1EBF10F8014BAD1C94
:100220000C1B09D16D1E58BF01F801CBFAD505E0B2
:1002300014F8016B01F8016B6D1EF9D59142D6D30C
:10024000704700000023002400250026103A28BF34
:1002500078C1FBD8520728BF30C148BF0B60704738
:1002600066290CF0D280642900F0DA80752900F04C
:10027000D780782900F01081632900F06485732904
:1002800000F06985002070471FB50CF0B4F800F04D
:1002900008FA00F0A9FD0400002000210BF02EFE5A
:1002A000E0601FBD10B510BD00F09EFE1146FFF7C7
:1002B000EBFF07F05FFE00F0BCFE03B4FFF7F2FFB8
:1002C00003BC05F0A4FE00000B49D1F800C04A6849
:1002D0005CF8043B1068184442F8040B8C4528BFB6
:1002E000A1F1DC0C8A4228BFA1F1DC02C1F800C0F8
:1002F0004A6020F000407047E830022009488047FB
:1003000009480047FEE7FEE7FEE7FEE7FEE7FEE7F7
:10031000FEE7FEE7FEE7FEE704480549054A064B0F
:10032000704700002D5A0008AD010008503102202E
:10033000503B02205033022050330220704700000F
:100340000FB4044910B503AA029800F009FD10BCCF
:100350005DF814FB140000200FB41CB5074B06AA6F
:100360007B4469460090059800F0CBFC002069466C
:1003700000F0DAFC1CBC5DF814FB0000C5090000AD
:1003800070B5044685690068C10601D5302600E0D5
:100390002026C00707D070BDD4E901213046904720
:1003A000206A401C20626D1EF6D570BD70B50446F3
:1003B00085690078C00707D170BDD4E901212020EC
:1003C0009047206A401C20626D1EF6D570BD70B546
:1003D0000C460546012A05D02878800600D5EA6932
:1003E000002302E0012305E05B1C934202D2E05CA3
:1003F0000028F9D1A869E618C01AA861286A18442B
:1004000028622846FFF7BCFF04E0D5E9012114F873
:10041000010B9047B442F8D32846FFF7C7FF70BDE1
:100420002DE9F0410646002410687529314616A5CD
:1004300010D0AFF30080002802DA404213A507E095
:1004400031688A0701D512A502E0490704D511A534
:10045000012401E0AFF3008000210A2206F1240705
:1004600009E0B0FBF2FCB0FBF2F302FB1C00303001
:1004700078541846491C0028F3D123462A463046B2
:10048000BDE8F04100F0D1B9000000002D000000EF
:100490002B0000002000000070B504460D462146E8
:1004A0001068AFF300802188090502D50F4A7A440D
:1004B00002E00E4A7A440E32002104F1240305E0E2
:1004C00000F00F060009965D5E54491C0028F7D124
:1004D00020780023000704D5702D02D009B1022333
:1004E00011322046BDE8704000F09FB9A6C0000060
:1004F0002DE9F05F894604464FF0000ADFF874B139
:10050000FB44C0F820A02046E1688847002874D04A
:10051000252806D0D4E901219047206A401C20629A
:10052000F1E700265F462046E16888472028054617
:1005300007DB312D05D2781910F8200C08B10643DD
:10054000F1E7B00701D526F00406C4F81CA0002787
:10055000C4F818A02A2D09D0284605F051FD38B35B
:1005600004EB8708303DC8F8185019E059F8041B0F
:10057000204604EB87029161E1688847012F054618
:1005800018D1E069002820DA26F020061DE0D8F80E
:10059000180000EB800005EB40003038C8F8180068
:1005A0002046E1688847054605F02AFD0028EED17F
:1005B000012F0AD02E2D08D12046E16888477F1CE4
:1005C0000546022F46F02006C4DBA069002803DAA6
:1005D000404246F00106A061F00701D026F0100667
:1005E0006C2D0BD0682D09D04C2D39D06A2D35D00B
:1005F000742D35D07A2D33D016E038E0E1682F46DF
:1006000020468847B842054609D16C2F26D04FF4C2
:100610008060E168064320468847054604E06C2F69
:100620001AD04FF4807006430DB3A5F1410019288C
:1006300002D8203546F400664A4629462046266000
:100640004E46FFF70DFE80B101280BD0F61D26F0B7
:10065000070000F1080956E74020E4E78020D8E7CA
:100660000020D6E706F104094DE7284652E7206A44
:10067000BDE8F09F7CC000000B4910B5A1F17C02E1
:100680000A4CC2E93712372106E000EB104342F86A
:100690002130074B00FB03400B1EA1F10101F4DCEC
:1006A00010BD0120E8E7000088300220E119D6667D
:1006B000CD0D010040EA010310B59B070FD1042ABC
:1006C0000DD310C808C9121F9C42F8D020BA19BA1D
:1006D000884201D9012010BD4FF0FF3010BD1AB182
:1006E000D30703D0521C07E0002010BD10F8013BD7
:1006F00011F8014B1B1B07D110F8013B11F8014BFE
:100700001B1B01D1921EF1D1184610BD10B5431C20
:1007100002E010F8011B71B18107FAD14FF00132EC
:1007200002C88C1A8C4314EAC211F9D0C01A0A0606
:1007300003D0C01E10BDC01A10BD0A0401D0801E17
:1007400010BD0902FCD0401E10BD032A40F23080CB
:1007500010F0030C00F0158011F8013BBCF1020F02
:10076000624498BF11F801CB00F8013B38BF11F883
:10077000013BA2F1040298BF00F801CB38BF00F89A
:10078000013B11F0030300F0FD82083AC0F008803D
:1007900051F8043B083A51F804CBA0E80810F5E7FB
:1007A000121D5CBF51F8043B40F8043BAFF30080DE
:1007B000D20724BF11F8013B11F801CB48BF11F853
:1007C000012B24BF00F8013B00F801CB48BF00F823
:1007D000012B70474FF0000200B513469446964631
:1007E000203922BFA0E80C50A0E80C50B1F1200144
:1007F000BFF4F7AF090728BFA0E80C5048BF0CC0F2
:100800005DF804EB890028BF40F8042B08BF70474F
:1008100048BF20F8022B11F0804F18BF00F8012BC1
:10082000704770477047704770472DE9F0470D4695
:1008300099469246044600F124080168880604D5CA
:10084000E06921F01001216000E00120A84201DDF3
:10085000471B00E00027A1697A1902EB0900081A7A
:10086000A0612078C00602D42046FFF789FD00264B
:1008700008E0D4E901211AF806009047206A401CDC
:10088000761C20624E45F4DB2078C0060AD520464F
:10089000FFF776FD06E0D4E9012130209047206A79
:1008A000401C2062381EA7F10107F4DC07E0D4E900
:1008B000012118F805009047206A401C2062281E7C
:1008C000A5F10105F3DC2046FFF770FD2078000656
:1008D00002D50220BDE8F0870120FBE770472DE933
:1008E000FF4F0C461E464FF0FF378BB0D2E9000198
:1008F000DDF860800A908A46C1F30A5505B93D4685
:10090000002108464FF00000BAF1000F00F440004B
:1009100005DA00EB80004FF4400101EA50004FEA95
:100920009059B9F1010F00DDB9460A9850EA4A0022
:100930000ED044F61050A5F2FF3545432F14B8F100
:10094000000F1ED07542291E1EDDC9F100021CE0F9
:10095000B8F1010F4FF0000001D0302103E0F24365
:1009600005E02154401CB042FBDB30460022002150
:1009700021540B99C1F80880C1E900200FB0BDE8EF
:10098000F08FBD1B6D1CDEE74A4600DA694206A8FF
:1009900000F0B4FA06AB93E8070003AB83E8070066
:1009A00050460A9900F08CFB8DE80700A0F5005036
:1009B0001F3800900398002D09DD42F21F014A46BE
:1009C000084403A90390684600F0EBFD08E0A0F599
:1009D00000504A461F3803A90390684600F0F5FD11
:1009E0008DE807000004000C03D04FF0FF304108F1
:1009F00000E01046B8F1000F03D000220092154627
:100A00001EE0751E05D400F0F3F9303262556D1EFC
:100A1000F9D5B3460122084302D000227F1C04E02E
:100A20002078302801D100227F1E002A099786D025
:100A30001DE0112D07DA00F0DBF9303262556D1C34
:100A400050EA0102F5D1084302D00098C8B10EE087
:100A50000021681E05E0235C625C63542254401E42
:100A6000491C8142F7DBAB46A81B401E09900020C1
:100A700004F80B000B98099AC0F80880C0E9002B15
:100A80007CE711264FF0000859E72DE9F04F884622
:100A90000446D21D22F0070191B0D1E90001CDE951
:100AA0000A0105F095FA02460B98C00F01D02D20DF
:100AB00007E02068810701D52B2002E0202101EA10
:100AC000C000032A099001D0072A05DB03464146EE
:100AD000204600F0D3F90BE12078800601D5E069CB
:100AE00000E00620B8F1650F814606D0B8F1660F28
:100AF00018D0B8F1670F70D131E00020B9F1110FB3
:100B0000009001DB112301E009F101030AAA01A908
:100B10000CA8FFF7E4FEDDE90C70002609F10105E1
:100B2000834647E001204B4600904FF000470AAA59
:100B300001A90CA8FFF7D3FEDDE90DB00C995D46C5
:100B4000002610B909F101000D18B9EB050003D416
:100B5000C0F1FF3609F10105A5EB09002BE0B9F161
:100B6000010F01DA4FF001090020B9F1110F0090D7
:100B7000484601DD112300E003460AAA01A90CA89A
:100B8000FFF7ADFEDDE90C704D4600268346207868
:100B900000070AD4AB4500DA5D4601A8012D04DD4B
:100BA000411911F8011C302907D04F4502DA17F11D
:100BB000040F04DA012082460FE06D1EEEE7002FDD
:100BC00002DCED1B3E4403E0781CA84200DD7D1CE6
:100BD000B81B00F1010A4FF000472078000703D44A
:100BE000AA4501DB4FF0FF3A0021B7F1004F0DF1AC
:100BF00043088DF8431024D002202B23002F01DA64
:100C00007F422D230A21021EA0F1010000DC5FB10A
:100C100097FBF1FC97FBF1F201FB1C7C17460CF1F2
:100C2000300C08F801CDEEE7A8F10100037021882F
:100C3000090501D5452100E06521A0F1010800F872
:100C4000011C09980FA9A1EB0807FF1D00B10120A5
:100C5000411901EBEA70A1693844081A401EA061ED
:100C60002078C00602D42046FFF78AFB099828B1F5
:100C7000D4E901219047206A401C20622078C006F8
:100C800022D52046FFF77CFB1EE0002E04DBB34597
:100C900002DD01A8805D00E03020D4E90121904709
:100CA000206A401C2062761CAAF101005FEA000A5B
:100CB0000AD100F099F8C0680168405CD4E90121CC
:100CC0009047206A401C2062281EA5F10105DCDC4B
:100CD00007E0D4E9012118F8010B9047206A401C75
:100CE0002062381EA7F10107F3DC2046FFF75EFB08
:100CF000032011B043E6000001694A1C0261087834
:100D0000704700B58FB0CDE901310021059105494B
:100D10007944CDE9031011466846FFF7E9FB0FB0AF
:100D200000BD0000E5FFFFFF0A6802F8010B0A6042
:100D3000704710B5436913B1AFF3008001E0FFF7CE
:100D400046FB012010BD127800F124010A70002238
:100D50004A700122EDE711684FF0FF32E9E7000029
:100D6000074B70B50D467B44FFF7CBFF0446284682
:100D700000F032F910B14FF0FF3070BD204670BD69
:100D8000B764000010B5203AC0F00B80B1E81850ED
:100D9000203AA0E81850B1E81850A0E81850BFF465
:100DA000F5AF5FEA027C24BFB1E81850A0E8185004
:100DB00044BF18C918C0BDE810405FEA827C24BF58
:100DC00051F8043B40F8043B08BF7047D20728BFE6
:100DD00031F8023B48BF11F8012B28BF20F8023B35
:100DE00048BF00F8012B70470048704710310220BF
:100DF00030B5B0F10A024FEA900E71F100034EEAED
:100E0000817EB0EB0E0061EB91014FEA101E4EEABD
:100E1000017E10EB0E0041EB11114FEA102E4EEA4D
:100E2000016E10EB0E0041EB11214FEA104E4EEA1D
:100E3000014E10EB0E0041EB1141401841F1000151
:100E40004FEAD00040EA41704FEAD10110EB800533
:100E50004FEA810444EA907444EB01046D1944EBB9
:100E60000404521BA3414FF0000348BF0A3200D5CF
:100E700030BD401C41F1000130BD00002DE9F041C2
:100E80001F46044603260168072A01F4006004DBBC
:100E900008B116A505E016A503E008B115A500E008
:100EA00015A521F010002060A069C01EA0610FB13F
:100EB000401EA0612046FFF763FA4FB1D4E901213B
:100EC00038469047206A401C2062C01C206206E021
:100ED000206AFAE7D4E9012115F8010B9047761E44
:100EE000F8D22046FFF762FABDE8F0814E414E008D
:100EF0006E616E00494E4600696E66002DE9F0474E
:100F0000814616468AB0334878440DC88DE80D00F6
:100F100030487844801C03AC0DC884E80D0041F6CD
:100F20009B300844372190FBF1F290FBF1F5A5F1DD
:100F3000800501FB12041B3C02D56442012000E045
:100F40000020DFF890A080460027FA44AAF1BE0AEC
:100F50000DE0E00709D03246684607EB47010AEB8F
:100F6000810100F032FB8DE8070064107F1C002C2B
:100F7000EFD1184F7F44AC3F18E0E80714D007EBDF
:100F800004100DF1180A90E80E008AE80E00C068FF
:100F9000F04201D198190890324606A903A800F042
:100FA00014FB03AB83E807006D10641C002DE4D133
:100FB00032466946B8F1000F03A802D000F0F1FAFA
:100FC00001E000F002FBC9E90001C9F808200AB0FD
:100FD000BDE8F08704B70000007B00F08000704798
:100FE00000487047F03002207546FFF7F9FFAE4623
:100FF00005006946534620F00700854618B020B525
:10100000FFF78AF9BDE820404FF000064FF00007D7
:101010004FF000084FF0000B21F00701AC46ACE8A0
:10102000C009ACE8C009ACE8C009ACE8C0098D460D
:1010300070470446AFF300802046FFF73EF90000FA
:101040004FF0013C50F8042B51F8043B9A4221D157
:10105000A2EB0C03934313EACC1317D150F8042BE3
:1010600051F8043B9A4215D1A2EB0C03934313EAC7
:10107000CC130BD150F8042B51F8043B9A4209D100
:10108000A2EB0C03934313EACC13DBD04FF0000028
:10109000704700BFD01A01BAB1FA81F101F018010E
:1010A00022FA01F0CB40C1F12001DBB2C0B2C01A7C
:1010B0002CFA01F3D11A914311EAC311E6D170471A
:1010C0005FEA400C08BF91F0000F4FEA8C234FEA13
:1010D000C12243EA51514FEA1C5018BF00F5F040BD
:1010E0004FEA300018BF41F000415FEA6C5C00F04D
:1010F0002980BCF1FF3F08BF40F080407047130CCF
:1011000006BF12044FF0100C4FF0000C130E04BF7A
:1011100012020CF1080C130F04BF12010CF1040CA5
:10112000930F04BF92000CF1020CD30F04BF5200C6
:101130000CF1010C11464FF00002A0F11F00A0EBD2
:101140000C00704711F0004F08BF704731F00041AC
:101150003FF4D5AF0B0C06BF09044FF0100C4FF055
:10116000000C0B0E04BF09020CF1080C0B0F04BF9E
:1011700009010CF1040C8B0F04BF89000CF1020C67
:10118000CB0F04BF49000CF1010CCCF12003A0EB04
:101190000C0022FA03F302FA0CF241EA030100F117
:1011A0000100704720F07F4C80EA030023F07F4766
:1011B000ACEB070303F57C5300F0004003F1FF03A1
:1011C0002DE980494FEA154B09B44FEA144325EA4B
:1011D0000B4E24EA03480FF2042606EB13274908B6
:1011E0003E785FEA320203FB0667C7F5000707FB9C
:1011F00006F64FEA54374FEAD64606F1020607FBD9
:10120000066CCCF1005C4FEA1C472CEA074C07FB4C
:1012100006F40CFB06F504EB15464FEA961634BFB0
:1012200000204FF000404FEAD13706FB07FC4FEAA1
:101230001C4C0CFB0BF7D21B03FB0CF761EB0701FB
:101240000CFB0EF7B0EB074072EB17420CFB08F7F4
:1012500034BFA2EB0742B2EB074261EB17414FEA02
:101260000C444FEA910706FB07FC4FEA1C4C0CFBB1
:101270000BF7B0EBC74072EB573203FB0CF734BFF0
:10128000A2EBC742B2EBC74261EB57310CFB0EF742
:10129000B0EBC70072EB57720CFB08F734BFA2EB40
:1012A000C702B2EBC70261EB5771039F4FEA81613E
:1012B00041EA921104EBCC044FEAD1374FEA826243
:1012C00006FB07FC42EA90124FEA80604FEA1C4C92
:1012D0000CFB0BF7D21B03FB0CF761EB07010CFBBC
:1012E0000EF7B0EB074072EB17420CFB08F734BF68
:1012F000A2EB0742B2EB074261EB17414FEA8C5574
:101300004FEA910704EB9C2406FB07FC4FEA1C4CB8
:101310000CFB0BF7B0EBC74072EB573203FB0CF73B
:1013200034BFA2EBC742B2EBC74261EB57310CFBB3
:101330000EF7B0EBC70072EB57720CFB08F734BF27
:10134000A2EBC702B2EBC70261EB577115EB4C255C
:101350004FEA816141EA92114FEA82624FEAD13746
:1013600042EA901206FB07FC44F100044FEA806059
:101370004FEA1C4C0CFB0BF7D21B03FB0CF761EB89
:1013800007010CFB0EF7B0EB074072EB17420CFBAA
:1013900008F734BFA2EB0742B2EB074261EB1741FB
:1013A00015EB1C154FEA813141EA92414FEA823236
:1013B00042EA90424FEA80304FEA0C7644F1000452
:1013C00048EA03434EEA0B484FF0000EB2EB080C1C
:1013D00071EB030724BF624639464EEB0E0E4FF009
:1013E000000B0018524149414BEB0B0BB2EB080CC0
:1013F00071EB03077BF1000B24BF624639464EEBCD
:101400000E0E4FF0000B0018524149414BEB0B0BF5
:10141000B2EB080C71EB03077BF1000B24BF6246B3
:1014200039464EEB0E0E51EA020718BF46F0010690
:1014300016EB0E7655F1000254F1000103D5BDE81C
:101440008901BDE80088BDE88901BDE80048B619FA
:10145000524141EB0101A3F10103704780807F7E7F
:101460007D7C7B7A7978777676757473727171701A
:101470006F6E6E6D6C6C6B6A6A69686867666665CC
:101480006464636362616160605F5F5E5E5D5D5C5A
:101490005C5B5B5A5A5959585857575656555555CB
:1014A0005454535352525251515050504F4F4F4E2B
:1014B0004E4D4D4D4C4C4C4B4B4B4A4A4A49494979
:1014C00048484847474747464646454545444444BB
:1014D000444343434342424242414141002B26D4CC
:1014E000770021D01CB54FEA370703B44FF0100046
:1014F0004FF010014FF000000FBCBDE810400BF1A1
:10150000010BBBF1010F08BF5FEA170722BF12F101
:10151000010211F101014FF0004143F1000300F01D
:10152000004043EA00007047F9D35708DAE746EA7B
:10153000064613F1400F4FEA16461FDD13F1200F48
:10154000DFBF16430A46002120335B42C8D0C3F1F7
:10155000200746EA064602FA07F74FEA164646EA29
:101560000706C3F1200722FA03F201FA07F721FA6E
:1015700003F14FF0000342EA0702B1E746EA020630
:1015800046EA06464FEA164646EA0106BCBF46EA68
:101590000646360C4FF000034FF000024FF00001FA
:1015A0009EE72DE9C048934630B491E8380007C85B
:1015B00031EA400C48BF34EA430C03D5FFF7F2FD93
:1015C000FFF78CFFF0BCBDE800882DE9C0489346CA
:1015D00030B491E8380007C810F0804F08BF13F00E
:1015E000804F03D100F005F8FFF778FFF0BCBDE8AD
:1015F000008820F07F4780EA030023F07F4C07EB50
:101600000C03A3F57C5300F00040A3F1FE0392F01D
:10161000000F00F0B38095F0000F00F077802DE907
:1016200001494FEA11404FEA144621EA004800FB05
:1016300006FC24EA064708FB06F607FB08F800FB51
:1016400007F718EB06484CEB164C4FEA124B18EB19
:1016500007484FEA15464CEB174022EA0B4E0BFBAE
:1016600006FC25EA06470EFB06F607FB0EFE0BFB03
:1016700007F71EEB064E4CEB164C4FF000061EEB28
:10168000074E4CEB174B18EB0B0840F1000018EB22
:101690000E0B58EB000840F100008F1A4FF00001CC
:1016A0003CBFC943661B14BFB5EB040C00213CBF13
:1016B000C943F61B4FEA17444EEA8E0E27EA04454B
:1016C0004FEA1C4704FB07622CEA074C05FB07F7AF
:1016D0000CFB05F604FB0CFC16EB074642EB17422D
:1016E00016EB0C4642EB1C421BEB060658EB0202C3
:1016F000414146EA9E0601D5BDE80189B61952412D
:1017000041EB0101A3F10103BDE801894FEA144552
:101710004FEA114724EA054621EA074C05FB07F486
:1017200006FB07F70CFB06F105FB0CFC11EB074170
:1017300044EB17444FEA124711EB0C4144EB1C44B5
:1017400022EA074C05FB07F206FB07F70CFB06F63F
:1017500005FB0CFC16EB074642EB174216EB0C465A
:1017600042EB1C456A1854F1000148BF7047B61996
:10177000524141EB0101A3F10103704795F0000FC5
:1017800037D04FEA11424FEA144721EA024624EAD1
:10179000074C02FB07F106FB07F70CFB06F402FB04
:1017A0000CFC14EB074441EB17414FEA154714EBCF
:1017B0000C4441EB1C4125EA074C02FB07F506FBF4
:1017C00007F70CFB06F602FB0CFC16EB074645EB95
:1017D000174516EB0C4645EB1C42121951F100015E
:1017E00048BF7047B619524141EB0101A3F1010313
:1017F00070474FEA14454FEA114724EA054621EAAB
:10180000074C05FB07F106FB07F70CFB06F24FF050
:10181000000605FB0CFC12EB074241EB174112EBF3
:101820000C4251EB1C4148BF7047921841EB01013B
:10183000A3F10103704700004A4910B5D1F8042311
:1018400022F44032C1F80423D1F8042343681A4338
:10185000C1F8042301684A6822F480724A60016872
:101860004A68036942EA03224A6001684A6822F032
:1018700040724A6001684A6883681A434A60016896
:101880008A6822F400628A6001688A68C3681A4321
:101890008A60816A6FF07062D14201688A6822F0C2
:1018A00070628A6001688A680CD0836A1A438A6011
:1018B00001688A6822F040528A6001688A68C36AB7
:1018C0001A4301E022F040528A6001688A6822F0DF
:1018D00002028A6001688A68836942EA43028A6078
:1018E000016A002901684A6815D042F400624A6022
:1018F00001684A6822F460424A6001684B684FF40C
:101900006044426A94FAA4F4B4FA84F4521EA240E9
:1019100013434B6002E022F400624A600168CA6A25
:1019200022F47002CA620168CA6A838B0E4C04EB0F
:1019300003531A43CA6201688A6822F400728A60FB
:1019400001688A68036B42EA43228A6001688A68F8
:1019500022F480628A6001688A68406942EA8020D5
:10196000886010BD002001400000F0FF104882B0E8
:101970000021026842F48072026000680D4A00F49F
:10198000807000900C4802604FF48032C0E9012161
:10199000C160016101224161C0E90612074A01628A
:1019A000C0E90912C162016302B000F0B0BA0000E0
:1019B0004438024000200140F8AF01200100000F30
:1019C00010B500F013F80321BDE81040022000F02C
:1019D00001B80000044A10B5126813690A460146AE
:1019E00084209847002010BDD801002070B50B4D11
:1019F0000124842069688847B0F5B05F0BD1084E98
:101A00000024842035602968884730684FF6FF71CC
:101A1000C26884209047204670BD000080010020ED
:101A2000D80100200449054A31F8101052F820006E
:101A3000012201F09BB8000058C40008BC0100203E
:101A40000449054A31F8101052F82000002201F034
:101A50008DB8000058C40008BC010020FEE77047A4
:101A6000064908B509684FF4FA52B1FBF2F1414357
:101A7000009100BF491E0091FBD208BD000000206C
:101A800038B50446006800F58050816941F4801142
:101A90008161206800F58050806900900120FFF787
:101AA000DFFF2068009900F58050816138BD00009B
:101AB0002DE9F041044621B14FF40060E060C00020
:101AC000A060E0690025002861D0284623684026F0
:101AD00019683A4A1140D4E902273A43024342F4D2
:101AE00000700843186020680768012000F0FAFAC7
:101AF000206807602068466020684668012000F082
:101B0000F1FA20684660206885602068C560216819
:101B100088694FF64172104040F08000886120686B
:101B20008669012000F0DEFA206886612068C561C0
:101B30002068C569012000F0D5FA2068C5612268D7
:101B400002F5805290691E4908401E490143916187
:101B5000206800F580508569012000F0C3FA2068F4
:101B600000F5805085612068174900F580500160BC
:101B7000206800F580500568012000F0B3FA206865
:101B800000F580500560A069012803D009E04FF4FA
:101B900080609BE7206800F58050C1690B4A1143C3
:101BA000C16160690A4982880A640278D0F801003C
:101BB00042EA00204864BDE8F08100000F8120FF68
:101BC000233FDEF8040020028020C1024000010013
:101BD00000800240F8B500208DF8000004464FF068
:101BE000007604222146684600F0D6F89DF80000F1
:101BF00004F58044401C8DF80000B442F1D3002469
:101C000004222146684600F057F817E004222146D6
:101C1000684600F051F88CB19DF80000A8420CD93C
:101C20009DF80000401B401C0004010B05A0FEF7BE
:101C300087FB04F58044B442E8D3F8BD9DF800501A
:101C4000EEE70000534452414D20436170616369E7
:101C500074793A25644B420D0A00000030B5D1E991
:101C600001231A43D1E903352B431A434B690C680E
:101C70001A438B691A43D1E90735012C496A046874
:101C800007D01A432A436FF30E040A43224302602B
:101C90000AE024F4F8442B4321430B4341680360DA
:101CA0006FF30E010A434260002030BD426942EAF0
:101CB0004101416100207047002A07D0A1F1804313
:101CC0001B78491C00F8013B521EF7D17047F8B54C
:101CD00014460546D1E9000210438A686FF01F03DD
:101CE000C96803EB421242EA41210843009028618F
:101CF00000F042FF064609E0601C07D024B100F066
:101D00003BFF801BA04201D90320F8BDA8698006D3
:101D1000F2D40020F8BD0000F0B56FF00F05D1E956
:101D2000003405EB04145B1E23432E018C682F0343
:101D300006EB042423434FEA054C0C8A8E8ACD68B7
:101D4000097E4FF07F4E07EB04440CEB06560EEB7A
:101D50000161012A0CD082683F1107EB05352B4346
:101D60002343334302F070420B43134383600FE07D
:101D70008768084A17402A03A2F580523243C56893
:101D80003A43234305F070450B432B438260C36005
:101D90000020F0BDFF0F0FFF10B5002A08D000BFD4
:101DA000A1F1804310F8014B1C70491C521EF7D161
:101DB00010BD000078B50024009490F83C20012A62
:101DC00019D0012280F83C200A6807230568092AF7
:101DD00013D9EE680A3A02EB420293409E43EE604A
:101DE0000B788A680A3B03EB43039A400368DD687B
:101DF0002A43DA6010E0022078BD2E6902EB42022D
:101E000093409E432E610A788B6802EB4202934016
:101E1000026815692B4313614A681F23072A13D2EE
:101E200005686E6B521E02EB820293409E436E6306
:101E30000A8893B20A79521E02EB8202934002682A
:101E4000556B2B43536327E005680D2A12D22E6B86
:101E5000D21F02EB820293409E432E630B790A88C5
:101E6000DB1F92B203EB83039A4003681D6B2A4386
:101E70001A6311E0EE6A0D3A02EB820293409E4330
:101E8000EE620B790A880D3B92B203EB83039A4012
:101E90000368DD6A2A43DA62174A0368934208D16D
:101EA0000B68122B05D1D2F8043343F48003C2F837
:101EB0000433036893421BD1104B0D689D4201D03F
:101EC000112D15D1D2F8045345F40005C2F804537E
:101ED000096899420CD10A490A4A0968B1FBF2F132
:101EE00001EB8101490000E0491E00910029FBD16E
:101EF00080F83C40002078BD002001401200001016
:101F00000000002040420F000068C06C704770B5B0
:101F100004004FF0000503D0206C002610B107E04C
:101F2000012070BD666484F83C60204600F019F81A
:101F3000206CC00610D4206C20F4885040F00200C1
:101F400020642046FFF778FC6664206C20F00200D5
:101F500040F00100206400E0012584F83C60284640
:101F600070BD70472DE9F041044600680D46816858
:101F70004FF0000749050BD58068C00508D5206CD7
:101F800040F02000206484F83C700120BDE8F0811E
:101F900000F0F2FD06460FE0681C0DD025B100F000
:101FA000EBFD801BA84207D9206C40F004002064A0
:101FB00084F83C700320E9E7206800688007EBD5CF
:101FC00021686FF012000860206C40F400702064FB
:101FD0002068816811F0405F13D1A16989B9C16A95
:101FE00011F4700F02D0806840050AD4206C20F4F0
:101FF00080702064206CC00403D4206C40F0010089
:1020000020640020C2E7000018B50021009190F87C
:102010003C20012A07D0012280F83C200268936806
:10202000DB0702D011E0022018BD936843F00103E2
:102030009360204A204B1268B2FBF3F202EB42029B
:1020400000E0521E0092002AFBD102689368DB0771
:102050002DD0036C40F20164A34343F48073036406
:1020600053685B0505D5036C23F4005343F4805398
:102070000364036CDB0404D5436C23F00603436460
:1020800000E0416480F83C106FF0220111600B49C0
:10209000D1F804230068D20601D0884207D18168B4
:1020A00011F0405F03D1816841F0804181600020E0
:1020B00018BD00000000002040420F000020014039
:1020C00090F83510022903D0802141650120704726
:1020D000052180F835100068016821F001010160D8
:1020E0000020704731B500F047FD044600F044FD84
:1020F0000099001B8842F9D338BD00002DE9F0415A
:10210000054690F845000C46012875D0012685F853
:102110004560022085F84400002C70D02A681168C0
:1021200041480140D4E900031843D4E902373B4356
:102130001843AB6818432369184363691843EB6875
:102140001843A3691843E3691843236A1843636A71
:102150001843A36A184308431060286807680120E1
:10216000FFF7C0FF28680760D4E90B010843D4E9F2
:102170000D1211430843E16B0843216C0843616C65
:102180000843A16C08432968486028684768012013
:10219000FFF7A8FF286847602968E06C8860296815
:1021A000206DC8602A6891694FF641700140D4E9FA
:1021B00016031843B4F85470236E43EA07431843D8
:1021C000636E1843A36E18430843906128688769BB
:1021D0000120FFF787FF28688761D4E91B010843C6
:1021E0002968C8612868C4690120FFF77BFF286857
:1021F000C46114E000E002E00220BDE8F08129683B
:10220000086820F49042D5E902031843104308609F
:10221000286804680120FFF765FF2868046005F856
:10222000446F00206870E8E70F8120FF2DE9F0433C
:1022300090F845400025012C0DD04FF0010C80F89E
:1022400045C0022480F8444044F2F4574FF000495E
:102250005E1E816217E00220BDE8F08301EB4514A9
:10226000C4F80090C5EBC51808EB480802EB8808D5
:10227000C4E90178B54204D204F12008C4F80C8006
:1022800000E0E1606D1C9D42E8D3026802F58052D7
:10229000D16080F844C0002180F845100846DBE793
:1022A0002DE9F043914690F845200024012A0AD0F8
:1022B000012680F84560022280F844204FF4801CFB
:1022C0005D1EC1621BE00220BDE8F08301EB4412F9
:1022D000C2F800C0C4EBC41707EB470809EB880736
:1022E0009760C7691FB9176847F440071760AC4289
:1022F00003D202F12007D76000E0D160641C9C4249
:10230000E4D3026802F58052116180F84460002134
:1023100080F845100846D7E710B590F84510012918
:1023200013D0012280F84520022180F84410816AF0
:102330000C680023002C27DB0C68E40518D5846B9F
:10234000641C8463012C02D002E0022010BD0163F2
:1023500041630C68C4F30D44241FC463046BA46878
:102360000464C96840F8281F02774377002010BD35
:102370000C68A40503D58263C0E90C1302E0846BEA
:10238000641C8463C968816200F8442F4370012093
:1023900010BD00002DE9FC474FF000060400B146D7
:1023A000009603D094F8440018B107E00120BDE87E
:1023B000FC8784F84560204600F0E2F86648016832
:1023C00041F480410160006800F48040019063485E
:1023D000016821F4000101600168226A1143016073
:1023E000206800F58050016841F00101016000F0B3
:1023F000C3FB05464FF4FA7709E000BF00F0BCFBD1
:10240000401BB84203D9032004F8440F67E020685A
:1024100000F580500068C007F0D12068006920F006
:102420001C0501F0C1F94E494E4A0144914202D2C5
:1024300045F0080516E04C494C4A0144914202D24D
:1024400045F00C050EE04A494A4A0144914209D33D
:10245000494908444949884202D245F0040501E04F
:1024600045F01005206805614FF400420021204628
:1024700000F05AFA0125A8BBFF20FFF733FE606881
:1024800088B300F079FB804641F288376A46012123
:10249000204600F0FFF800F06FFBA0EB0800B84208
:1024A00017D800984007F1D54FF4805200212046FC
:1024B00000F03AFAB0B900F05FFB80466A460121AD
:1024C000204600F0E7F800F057FBA0EB0800B84208
:1024D0000AD901212046FFF7EBFA04F8445F0320F4
:1024E000667064E724E018E000988006E6D56A4646
:1024F0001021204600F0CEF8D0B90098410703D54E
:102500004FF40061E16000E0E660800701D5A6605D
:1025100019E04FF48040A06015E0E068A168C008B1
:1025200040EA510082B20021204600F0FDF930B1AE
:1025300001212046FFF7BCFA84F8445036E740F604
:10254000FF70FFF7CFFD49462046FFF7B1FA84F848
:10255000445000202BE7000044380240043801407A
:1025600000D3CEFEC0E1E40040F1E9FD40787D01FA
:1025700000796CFC005A6202001F0AFA80F0FA022D
:1025800010B53E4C86B00020216841F00101216069
:10259000216801F001010591216841F002012160EB
:1025A000216801F002010591216841F004012160D8
:1025B000216801F004010591216841F020012160AA
:1025C000216801F020010591216841F0400121605E
:1025D000216801F040010591216841F080012160EE
:1025E000216801F080010591216841F4807121602A
:1025F000216801F480710591032103910221CDE945
:1026000001100B2004908620009069461C4800F0C1
:10261000C7F94FF49070009069461A4800F0C0F96D
:102620003E2000906946184800F0BAF94FF4D040B7
:1026300000906946154800F0B3F9C0200090694643
:10264000134800F0ADF9206840F000702060206869
:1026500000F000700590206840F0806020602068E5
:1026600000F080600590206840F0006020602068E5
:1026700000F00060059006B010BD00003038024048
:10268000000002400004024000080240001802401E
:10269000001C02402DE9F047044690F844009146A2
:1026A00082281DD0822084F84400226810694FF6E9
:1026B000FF7500F01C03208A05EAC02018434FF480
:1026C000F86303EA8111014321F0020040F00105A3
:1026D000156100F051FA064601274FF4803810E0EA
:1026E0000220BDE8F08700BF00F046FA801B40459D
:1026F00005D304F8447F002060700320F1E72068D0
:102700000569E807F0D12068406981B2C9F8001076
:1027100084F844700020E4E7F8B5044690F84500DA
:10272000012839D0012584F84550022084F844005E
:1027300020680026016841F00801016020680068F7
:1027400000902846FFF78CF92168009808602068FF
:10275000016841F0040101602068006800900120D8
:10276000FFF77EF92168009808602046FFF788F996
:10277000206800F58050816941F400518161206832
:1027800000F58050816941F00201816184F8445074
:1027900084F845600020F8BD0220F8BDF8B5044675
:1027A00090F84500012839D0012584F845500220D1
:1027B00084F84400206800F58050816921F40051BC
:1027C0008161206800F58050816921F002018161FA
:1027D00020680026016821F004010160206800687B
:1027E00000900120FFF73CF921680098086020461E
:1027F000FFF746F92068016821F0080101602068B0
:10280000006800900120FFF72BF92168009808600C
:1028100084F8445084F845600020F8BD0220F8BDDB
:10282000F0B590F845200023012A11D0012780F847
:102830004570022280F84420002459B1C66A3268EB
:10284000002A0ADA122100F8441F44700120F0BD6A
:102850000220F0BD00F8447FF7E740F2F455A942AA
:102860000BD9B1FBF5FCB1FBF5F205FB1C1CBCF16F
:10287000000F00D0521C012A43D1326842F040526E
:102880003260C26AC1F30C015160C16A0A6842F049
:1028900000420A60C16AC968C16234E0D6F800C06B
:1028A0002CF0405CC6F800C033B9C66AD6F800C048
:1028B0004CF0805CC6F800C0C66A7560561EB34214
:1028C00014D1C66AD6F800C04CF0005CC6F800C04F
:1028D000C2F10106C6EBC61606EB4606D0F82CC0C0
:1028E00001EB8606C6F30C06CCF80460C66AD6F87F
:1028F00000C04CF0004CC6F800C0C66A5B1CF6680D
:10290000C6629342CAD3016801F580514A695207F1
:1029100005D504224A61016801F580514C6000F838
:10292000447F44700020F0BD2DE9F041044690F84A
:10293000440042281ED0422084F8440023681869CD
:102940004FF6FF7600F01C05208A06EAC0202843D7
:102950004FF4F86505EA8111014390B241F0030597
:1029600058612068056100F007F9064601274FF419
:10297000803810E00220BDE8F08100BF00F0FCF8D4
:10298000801B404505D304F8447F0020607003207D
:10299000F1E720680569E807F0D184F84470EAE7B8
:1029A0002DE9F84FDFF890B100224FF001084FF009
:1029B000030A4FF00F090BF1040E00BF0B6808FA71
:1029C00002F42340A3426ED14D68022D01D0122D96
:1029D0000ED1D50800EB850CDCF820505607F70E19
:1029E00009FA07F6B5430E69BE402E43CCF82060C5
:1029F000066855000F790AFA05FC07F0030726EA76
:102A00000C06AF40374307604E68012E05D0022EFA
:102A100003D0112E01D0122E0ED18768CE6827EA7E
:102A20000C07AE403E4386604668A6430C79C4F36B
:102A30000014944034434460C4688E6824EA0C0453
:102A4000AE402643C6604C68E4006FD53B4C256819
:102A500045F480452560246822F0030504F4804491
:102A60000094374C2E19D6F8084895072F0F09FA0D
:102A700007F5AC43334DA84201D100252EE0324D7D
:102A8000A84201D1012529E0304DA84201D10225FB
:102A900024E02F4DA84201D103251FE02D4DA8426F
:102AA00002D104251AE041E02B4DA84201D10525B1
:102AB00014E02A4DA84201D106250FE0284DA84276
:102AC00001D107250AE0274DA84201D1082505E0DC
:102AD000254DA84201D1092500E00A25BD40254326
:102AE000C6F80858DBF800405D464E689C43F60384
:102AF00000D51C432C60DEF8004075464E689C43B0
:102B0000B60300D51C432C600B4D08352C684E686D
:102B10009C43F60200D51C432C60074D0C352C68F5
:102B20004E689C43B60200D51C432C60521C102AF0
:102B3000FFF444AFBDE8F88F003C01404438024048
:102B40000030014000000240000402400008024042
:102B5000000C024000100240001402400018024025
:102B6000001C024000200240002402400AB18161A2
:102B700070470904FBE70000014800687047000047
:102B80000400002010B5040013D0242084F83D0078
:102B90002068016821F001010160204600F022FB5D
:102BA0000020206484F83D0044F8300FA0732073A7
:102BB00010BD012010BD90F83D00704770B50400B5
:102BC00004D094F83D00002510B106E0012070BD4E
:102BD00084F83C50204600F006FB242084F83D0099
:102BE0002068016821F00101016000F0E3FD334934
:102BF0002268B0FBF1F15160314A6368934206D913
:102C00004FF4967359434FF47A73B1FBF3F1236891
:102C1000491C1962616891420BD84900B0FBF1F27E
:102C2000C2F30B02042A01D2042019E0B0FBF1F038
:102C300016E0A3689BB301EBC10202EB0112B0FBEB
:102C4000F2F242F48042120530D04BB301EBC102E4
:102C500002EB0111B0FBF1F040F4804040F4004081
:102C60002168C861D4E90701084321680860D4E9F4
:102C70000310084321688860D4E9050108432168EE
:102C8000C8602068016841F00101016025642020CE
:102C900084F83D00256384F83E50002070BD00E0BC
:102CA00006E001EB4102B0FBF2F2CCE70120D7E7EE
:102CB00001EB4101B0FBF1F0D0E7000040420F0012
:102CC000A08601002DE9F84F1F4690468A4604462B
:102CD000DDF82890FFF750FF054694F83D002028C6
:102CE0006FD1192301226E492046009501F05DFF46
:102CF0000028F5D194F83C00012862D0012084F826
:102D00003C0020680168C90703D1016841F0010156
:102D100001602068016821F400610160222084F8CC
:102D20003D00102084F83E0000262664C4F824806C
:102D300067855C48E062608D20852B464A46514697
:102D4000204601F0D3FD28B1206C84F83C600428B3
:102D500041D04DE0208D544F68B1012814D0022895
:102D60002068016816D041F48061016020684169E3
:102D70008069009085E0206841698169009101685F
:102D800041F4007101607CE02068016821F48061F9
:102D90000160F0E721F4806101602068016841F47E
:102DA0000061E2E7032849D801280BD0022817D098
:102DB0004B46002239462046009501F0F6FEB8B990
:102DC0002AE06AE02A464946204601F063FF28B11E
:102DD000206C20280CD00120BDE8F88F206845E049
:102DE0004B46002239462046009501F0DEFE08B130
:102DF0000320F1E72068016841F400710160206858
:102E00000169606A421C62620170208D401E20854B
:102E1000608D401E6085E1E72068016821F48061D3
:102E2000016020680169606A421C62620170208D45
:102E3000401E2085608D401E6085D1E72A464946A8
:102E4000204601F027FF0028C2D120680269606A8D
:102E5000411C61620270208D401E2085608D401EE5
:102E6000608520684169C94349070AD40169606ADD
:102E7000421C62620170208D401E2085608D401EC4
:102E80006085208D00288DD1202084F83D0084F8B5
:102E90003E6084F83C6000209EE702209CE7000032
:102EA000020010000000FFFF040001002DE9FF4FA9
:102EB00083B09A46DDE9117893460446DDF84090E8
:102EC000FFF75AFE054694F83D00202873D11923D8
:102ED000012272492046009501F067FE0028F5D1D5
:102EE00094F83C00012866D0012084F83C0020685A
:102EF0000168C90703D1016841F001010160206840
:102F0000016821F400610160222084F83D00402026
:102F100084F83E0000262664C4F824906785604843
:102F2000E062608D2085CDE9008553465A462046F3
:102F3000049901F04AFD28B1206C84F83C60042813
:102F400043D076E0208DC8B1012820D00228206827
:102F500023D0416980690090208D03286BD8012817
:102F60002AD05049022F43464FF0000200955BD013
:102F70008946204601F019FEF0BB40E02068416917
:102F800081690091016841F40071016076E0206878
:102F9000016821F480610160F0E7016821F480613B
:102FA00001602068016841F40061016020684169A6
:102FB0008069009062E06EE02A464146204601F0BA
:102FC00069FE30B1206C202833D0012007B0BDE865
:102FD000F08F206847E02068016841F400710160CB
:102FE00020680169606A421C62620170208D401E87
:102FF0002085608D401E00E01BE06085E9E72068C9
:10300000016821F48061016020680169606A421CE6
:1030100062620170208D401E2085608D401E60859B
:103020004346002249460095204601F0BEFD002897
:10303000D1D00320CAE72A464146204601F02AFEA5
:103040000028BFD120680169606A421C6262017079
:10305000208D401E2085608D401E6085206841695E
:10306000C94349070AD40169606A421C626201705F
:10307000208D401E2085608D401E6085208D00289B
:103080007FF46AAF202084F83D0084F83E6084F825
:103090003C6000209AE7022098E700000200100040
:1030A0000000FFFF040001002DE9FF4F83B09A46A6
:1030B000DDE9118793460446DDF84090FFF75CFD9B
:1030C000064694F83D0020287DD11923012243496A
:1030D0002046009601F069FD00287CD194F83C0060
:1030E000012878D0012084F83C0020680168C907D5
:1030F00003D1016841F0010101602068016821F4F9
:1031000000610160212084F83D00402084F83E00E9
:1031100000252564C4F82490A4F82A803048E06291
:10312000608D2085CDE9007653465A4620460499A5
:1031300001F0C4FC80B3206C84F83C50042848D0D3
:1031400008E032463946204601F0D5FD30B1206C0A
:10315000042839D0032007B0BDE8F08F606A411C15
:103160006162216800780861208D401E80B2208550
:10317000618D491E618521684A69D24352070BD48B
:1031800068B1606A421C626200780861208D401E4E
:103190002085608D401E6085208D0028D1D132466B
:1031A0003946204601F0DAFC0028D0D154F83D0B16
:1031B000016841F400710160202004F81E09E577E0
:1031C00065770020C7E706E02068016841F40071D8
:1031D00001600120BFE70220BDE7000002001000EF
:1031E0000000FFFF7047704702480168491C0160FA
:1031F00070470000040000200B4810B5016841F43E
:1032000000710160016841F480610160016841F46E
:1032100080710160032000F049F80F2000F006F8EB
:1032200000F018F8002010BD003C024010B5044624
:1032300007484FF47A710068B0FBF1F001F0B5F97E
:1032400000222146501E00F011F8002010BD0000A1
:1032500000000020704700F01F020121914040094A
:10326000800000F1E020C0F800117047F0B40E4B70
:103270001B680C46C3F30223C3F10705042D00D9D4
:103280000425191D072901D2002300E0DB1E0126B9
:1032900006FA05F1491E214099409E40761E1640CF
:1032A0003143F0BC01F0BCBE0CED00E0064900F07B
:1032B000070208684FF6FF03184040EA0220034A5D
:1032C00010430860704700000CED00E00000FA05B4
:1032D0002DE9F8431E48016841F080510160006803
:1032E000012600F080500090300490FAA0F0194FB1
:1032F000B0FA80F047F82060FFF73EFC05464FF437
:103300007A78154C05E000BFFFF736FC401B4045BE
:1033100015D86068C003F7D54FF4003090FAA0F0DC
:10332000B0FA80F047F82060FFF726FC05464646D5
:1033300008E000BFFFF720FC401BB04202D9032089
:10334000BDE8F88360688003F4D50020F8E700004A
:103350004038024000000E4200700040012001028F
:1033600091FAA1F1024AB1FA81F142F821007047C5
:1033700000000E422DE9F84F04460068A24EA34D0E
:10338000C10747F6C07A4FF0E0474FF0010B4FF00E
:10339000000901D180074CD59D49C1F86890FFF71D
:1033A000EBFB804606E000BFFFF7E6FBA0EB080062
:1033B00002287DD828680001F6D42078C1079548F6
:1033C0000DD09AFAAAF26168B2FA82F2914097FAA5
:1033D000A7F3A268B3FA83F39A40114301602178FE
:1033E000890716D5016897FAA7F201F0E041B2FA11
:1033F00082F2D1406268237B920142EA036242EA90
:10340000017101603068E16920F01F00491E084326
:1034100030607F49C1F868B0FFF7AEFB804605E039
:10342000FFF7AAFBA0EB0800022841D8286800019A
:10343000F6D52068410701D400077CD57449C1F84E
:103440007090FFF799FB804606E000BFFFF794FB02
:10345000A0EB080002282BD82868C0438000F5D5CF
:1034600020784FF0706241076B482CD5016897FABD
:10347000A7F301F0E041B3FA83F3D9409AFAAAFC2A
:103480002369BCFA8CFC03FA0CF392FAA2F8D4F884
:1034900014C0B8FA88F80CFA08FC43EA0C0397FA4F
:1034A000A7FCBCFA8CFC01FA0CF10B43036000E0B2
:1034B00081E03168236A6FF0FF0C21F4F8510CEBC6
:1034C0000323194331602178090722D501689AFA4C
:1034D000AAFC01F0706392FAA2F1B1FA81F1CB403B
:1034E0002169BCFA8CFC92FAA2F201FA0CF1B2FA50
:1034F00082F29340194397FAA7F3A269B3FA83F3D0
:103500009A40114301603068616A20F440300843FA
:1035100030603F49C1F870B0FFF72EFB064606E069
:1035200009E000BFFFF728FB801B022843D828686A
:10353000C0438000F6D42078800653D533484E46E9
:103540004030016841F0805101600068334D00F067
:1035500080500090286840F480702860FFF70CFBD2
:10356000074604E0FFF708FBC01B022823D82868A1
:10357000C005F7D5274D143D286810F4407020D0C1
:10358000218D01F4407181421BD02868244920F428
:103590004070C1F800B00E6028602868C00710D0E5
:1035A000FFF7EAFA064641F2883707E0FFF7E4FA48
:1035B000801BB84202D90320BDE8F88F2868800735
:1035C000F4D5A16A1148C1F301220830032A13D0AF
:1035D000016821F4F81101602868218DC1F30B0105
:1035E000084328602078C00604D50E4994F82C00C2
:1035F000C1F8E0010020DFE702680B4B22F4F8126B
:1036000019400A430260E7E78C3802400038024064
:103610000000474284380240883802400070004071
:10362000400E474200104742FFFCFF0F2DE9F047D4
:10363000DFF8649105460F46D9F8000000F00F014D
:10364000F8B28046B94208D2014689F80010D9F88C
:10365000000000F00F00B84274D128784F4C80076A
:1036600005D52068A96820F0F0000843206028787C
:10367000C00759D049496868083901281AD002287A
:103680001BD0032819D00968890700295ADA216854
:1036900021F0030101432160FFF76EFA69680646D5
:1036A00041F28830012911D002291DD00329824618
:1036B00027D035E009688903E7E709688901E4E76D
:1036C000FFF75AFA811B514501D926E0824620684E
:1036D000C0F381000128F3D126E000BFFFF74CFAC8
:1036E000811B514501D918E082462068C0F3810052
:1036F0000228F3D118E000BFFFF73EFA811B5145C5
:103700000BD82068C0F381000328F5D10CE000BF7E
:10371000FFF732FA811B514502D90320BDE8F0873B
:10372000206810F00C0FF3D1D9F80010484601F0D2
:103730000F01B94208D980F80080006800F00F003E
:10374000B84201D00120E9E72878400705D5206874
:10375000E96820F4E050084320602878000706D587
:103760002068296920F4604040EAC100206000F030
:1037700051F82168F02292FAA2F201F0F001B2FAB7
:1037800082F2D140064A515CC840064908600F20C9
:10379000FFF74CFD0020C1E7003C02400838024022
:1037A0000EC40008000000200148006870470000B7
:1037B0000000002008480949006809684FF4E052F9
:1037C00092FAA2F201F4E051B2FA82F2D140044A34
:1037D000515CC840704700000000002008380240DB
:1037E0000EC4000808480949006809684FF460429F
:1037F00092FAA2F201F46041B2FA82F2D140044A94
:10380000515CC840704700000000002008380240AA
:103810000EC4000830B51948006810F00C011848B3
:1038200012D0184C04290ED008290DD11349091FB4
:103830000A6802F03F030A68550247F6C07204D5D1
:10384000B4FBF3F003E0204630BDB0FBF3F00B68AF
:103850000968134092FAA2F2B2FA82F2D3405843B6
:103860004FF4403292FAA2F201F44031B2FA82F2FD
:10387000D140491C4900B0FBF1F030BD083802408E
:103880000024F40040787D012DE9F84F0546DFF86B
:10389000FC920078A9F1040BC007ABF1040449D0F5
:1038A000D9F800104846C1F38101012908D0006809
:1038B000C0F3810002280AD1DBF80000400206D5DF
:1038C0002068800336D5686800286ED032E06868CA
:1038D000B0F5803F10D0B0F5A02F206810D020F4B4
:1038E00080302060206820F4802020606868A0B1CB
:1038F000FFF742F906460CE0206840F48030F4E718
:1039000040F480202060F7E7FFF736F9801B642839
:1039100071D820688003F7D50CE0FFF72DF9064633
:1039200005E000BFFFF728F9801B6428F0D8206865
:103930008003F7D42878964F80074FF0010A4FF0A4
:10394000000841D5D9F80010484611F00C0F08D0F6
:103950000068C0F3810002280AD1DBF800004002B1
:1039600006D42068800713D5E86801281DD10FE030
:10397000E868D8B1C7F800A0FFF7FEF8064604E0F3
:10398000FFF7FAF8801B0228C2D820688007F7D515
:103990002068F82292FAA2F22969B2FA82F220F0A3
:1039A000F8009140084320600EE0ECE0C7F800808A
:1039B000FFF7E2F8064604E0FFF7DEF8801B022876
:1039C00019D820688007F7D42878000724D57148D3
:1039D000696989B1C0F800A0FFF7CEF8064604E097
:1039E000FFF7CAF8801B022805D868486C300068C9
:1039F0008007F5D510E07AE0C0F80080FFF7BCF84A
:103A0000064604E0FFF7B8F8801B02286FD85F482D
:103A10006C3000688007F5D42878400753D55B48A0
:103A20003830016841F080510160006800F080503A
:103A300000905948016841F480710160FFF79CF8DB
:103A4000064604E0FFF798F8801B02284FD852483A
:103A50000068C005F6D54D4EA868683601280FD01D
:103A60000528306810D020F001003060306820F068
:103A700004003060A868B8B1FFF77EF800900FE04E
:103A8000306840F00100F4E740F004003060F7E7F0
:103A9000FFF772F80099411A41F2883081426AD8E2
:103AA00030688007F4D50EE0FFF766F8009007E075
:103AB000FFF762F80099411A41F2883081425AD8E2
:103AC00030688007F4D4A869E8B3D9F80010C1F3CE
:103AD0008101022957D00228C7F8608003D0FFF780
:103AE0004BF805464AE0FFF747F8064605E042E096
:103AF000FFF742F8801B02283DD820688001F7D4E8
:103B0000D5E90701084347F6C07292FAA2F2696A42
:103B1000B2FA82F29140AA6A4FF0FF3303EB5202ED
:103B20004FF4403393FAA3F3B3FA83F39A4011436B
:103B300008434FF0706292FAA2F2E96AB2FA82F296
:103B40009140084300E01CE0CBF80000C7F860A0FB
:103B5000FFF712F8054604E0FFF70EF8401B0228B5
:103B600009D820688001F7D50BE000BFFFF704F803
:103B7000401B022802D90320BDE8F88F206880018D
:103B8000F4D40020F8E70120F6E7000008380240EE
:103B900000004742800E47420070004070470068B6
:103BA000503050F8210070470068503040F8212014
:103BB0007047704710B504460068C16849050CD5C8
:103BC0008068400409D52046FFF7F3FF2068C168EC
:103BD00001F0800161F49061C16003494FF48000FD
:103BE00008600120607710BD143C01407047000060
:103BF00010B504460068C168C9050CD58068C004CA
:103C000009D52046FFF7F2FF2068C16801F0800166
:103C100061F4C071C1602068C16889050CD58068F5
:103C2000800409D52046FFF7B9FF2068C16801F07C
:103C3000800161F42071C16003494FF400300860D5
:103C40000120607710BD0000143C014010B50068F1
:103C50000B4641680D480140080CD870C1F304249C
:103C60005C7001F03F049C70C1F34231197052B98D
:103C700001F022FAD870587801F01EFA587098783E
:103C800001F01AFA9870002010BD00003FFFFF00FD
:103C900010B50B460168896A596001680969C1F36A
:103CA0000E019960006801680E480140C1F30540AB
:103CB0001870C1F306245C7001F07F049C704024EE
:103CC00004EA1141D97052B901F0F6F91870587828
:103CD00001F0F2F95870987801F0EEF99870002030
:103CE00010BD00007F7F7F0070B5040002D0607FB0
:103CF00010B106E0012070BD00202077204600F0C2
:103D000041F8022060772168CA2048622168532068
:103D10004862204601F0E4F9FF210028206803D022
:103D2000416204206077E5E78268154B1A408260A3
:103D30002268906863681843D4E904352B4318431C
:103D400090602268E068106120680269238942EA75
:103D5000034202612068C26822F08002C2602068CB
:103D6000026C22F4802202642068026CA3691A4368
:103D700002642068416201206077002070BD00006D
:103D8000BFFF8FFF30B5104899B00025016841F0A2
:103D900080510160006800F080501890FFF7DEFA53
:103DA000042001240090069502946846FFF76CFDFC
:103DB00020200C90C00016900CA8FFF7DBFA0348F7
:103DC000046019B030BD0000403802403C0E47424C
:103DD0002DE9F0470446007F0B46012825D04FF01F
:103DE000010984F81C9002206077587802B301F032
:103DF00063F9987801F060F99878D97840EA01453C
:103E000058781978000240EA413005432168CA20F9
:103E10004862216853204862204601F061F900267B
:103E2000FF274FF0040858BB19E00220BDE8F087D7
:103E3000C10603D500F0EF000A305870D87801F0C1
:103E400044F90204587801F040F942EA00229878D7
:103E500001F03BF90243187842EA4035D6E70F48B3
:103E60000540206845602068C16821F08001C1607C
:103E70002068806880060AD4204600F089F830B1B6
:103E80002068476284F81D8026770120CEE72068ED
:103E9000476284F81D9026770020C7E73FFFFF00A8
:103EA0002DE9F0470446007F0D46012811D04FF060
:103EB000010A84F81CA00220607720680026806830
:103EC0004FEA406042B100281ADA287801F0F4F88D
:103ED00017E00220BDE8F087002800DBEE702878AC
:103EE00001F0F3F80204687801F0EFF842EA0022EA
:103EF000A87801F0EAF80243E87842EA00470AE0CD
:103F0000EE70A878297840EA01476878E9780002DD
:103F100040EA014007432168CA20486221685320D3
:103F20004862204601F0DCF84FF0FF084FF004092A
:103F3000E0B916480740206807602068816821F4CE
:103F400080218160D5E90301084321688A68104314
:103F500088602068C16821F08001C16020688068A5
:103F600080060BD4204600F013F838B12168C1F860
:103F7000248084F81D9026770120ABE72168C1F8E2
:103F8000248084F81DA026770020A3E77F7F7F0090
:103F900070B504460068C16821F0A001C160FEF759
:103FA000EBFD05464FF47A7607E000BFFEF7E4FD2F
:103FB000401BB04201D9032070BD2068C068800654
:103FC000F4D5002070BD70B50D46040003D094F800
:103FD0002C0010B107E0012070BD002084F82D00F6
:103FE000204600F011F8022084F82C00211D2068E2
:103FF000FDF734FED4E900022946FDF78DFE0120CD
:1040000084F82C00002070BD384800B5016887B0E6
:1040100041F008010160016801F0080105910168A3
:1040200041F010010160016801F010010591016883
:1040300041F020010160016801F020010591016853
:1040400041F040010160016801F040010591016803
:1040500041F080010160016801F080010591016873
:1040600041F480710160006800F4807005901F4881
:104070000830016841F0010101600068694600F004
:10408000010005900220019001200290032003907E
:104090000C2004904CF2037000901548FEF780FC51
:1040A0004FF68370009069461248FEF779FC4FF690
:1040B0003F00009069461048FEF772FC48F2371046
:1040C000009069460D48FEF76BFC4FF62C7000908F
:1040D00069460B48FEF764FC40F2FF6000906946B9
:1040E0000848FEF75DFC07B000BD00003038024014
:1040F000000C024000100240001402400018024070
:10410000001C02400020024010B5044690F82C002C
:10411000022809D0022084F82C002068FDF7C6FD93
:10412000012084F82C00002010BD000070B504466A
:1041300090F82C000D4602280DD0022084F82C00A7
:104140002068FDF7C4FD2868022805D05FF0010053
:1041500084F82C00002070BD0520F9E72DE9F04718
:1041600090F8202081F85620828CA1F85420826A91
:104170000027120E93090B70C2F383034B7002F0F9
:1041800003028A70826A120CCA70028D120A0A71C6
:1041900090F828204A71C26A4FF6FF7A120E0AEA96
:1041A0000212CA80C26ACB88C2F3074243EA1213E2
:1041B000CB8002F00F020A72828DC2F30723DA0964
:1041C0004A72C3F380128A72C3F34012CA72C3F3F5
:1041D00000120A7300224A73046A4FF00109002C8E
:1041E0007DD0012CFCD0022C7AD02927C3F3801477
:1041F0004C769B065B0E01F81A3F10F8303F0C78A6
:1042000044EAD31401F8014B03F07F0301F8013BAA
:1042100050F8043F1B0EDC090C70C3F341144C70C2
:10422000C3F382048C709B071B0FCB7008C8CC783B
:10423000C3F3074344EA9314CC70C3F340140C71E6
:104240004A7103F001028A7130F8042CC2F307228C
:10425000D309CB71C2F380130B72C2F340134B72BC
:10426000C2F300138B72C2F38103CB7202F003021C
:104270000A7310F8042C52084A734B4681F80E90CA
:1042800050F8082B120E0A7450F8082C120C0AEA87
:1042900002224A8230F8082CC2F307244A8A2243B9
:1042A0004A8210F8082C120641F8142F50F8042CFA
:1042B0000C68120E44EA02420A6050F8042C0C68A2
:1042C000C2F3074244EA02220A6030F8042C0C6868
:1042D000C2F30722144310C110F8042C01E034E0AB
:1042E00074E001F8012B0268120E01F8032B02683A
:1042F000120C12060A6002880C68C2F3072244EA14
:1043000002420A6002780C6844EA02220A604268AB
:104310000C6844EA126410C142680C78C2F3074288
:1043200044EA121401F8024B1207120D0A80828827
:104330000C88C2F30722144321F8024B007940088D
:1043400008704B703846BDE8F0879B071B0D0B616A
:1043500090F82C300C6944EA83030B61036B0C6901
:104360001B0E44EA93140C61C3F3C2040C7503F0F2
:1043700007034B75036BC3F307435C098C75C3F3E9
:104380008204CC759B075B0F0B76038E0C7EC3F308
:10439000072344EAD3140C760D690E7EB61C09FA85
:1043A00006F46D1CA5FB046C02FB04CC05FB02C4E7
:1043B0000D7A09FA05F8A6FB085C04FB08C406FBA5
:1043C0000244C1F85080C1E912540FE790F82C3034
:1043D0009B069B0A0B61036B0C691B0E44EA0323CB
:1043E0000B61036B0C69C3F307431C430C61038E21
:1043F0000C69C3F30723641C42F10005ED0445EA90
:104400005435E404C1E912454FF400740C65EDE63F
:1044100070B586B000240E4605468DF80C40047732
:1044200000F046F876200094CDE90140234622466C
:104430002146286800F0F4FE284601F081F98DF845
:104440000C009DF80C0038B9284601F00BF98DF8E6
:104450000C009DF80C0018B19DF80C0006B070BD62
:1044600031462846FFF77AFE8DF80C009DF80C00C7
:10447000A0B9B6F8540069460004009007200190E6
:104480004020CDE9020400010490286800F0E1FE1C
:104490000721284600F05AFF8DF80C0005F11000A6
:1044A00007C88DE8070095E80F0000F0B9FED3E7D4
:1044B0001D4800B5016887B041F004010160016842
:1044C00001F004010591016841F0080101600168F3
:1044D00001F008010591016841F480010160006864
:1044E00000F48000059010481430016841F4006128
:1044F00001600068694600F4006005904FF4F850D0
:1045000000900220019001200290032003900C20D3
:1045100004900648FEF744FA0420009069460448D7
:10452000FEF73EFA07B000BD3038024000080240F6
:10453000000C0240FEB50446006A00250E46032822
:1045400005D030B1012804D0022802D01FE0272076
:10455000FEBDB6F5805F05D0B6F5006F04D03EB164
:10456000262514E0272512E0204601F0DCF902E0C0
:10457000204601F09FF9050009D1211DD4E90570FD
:104580000EC90096CDE90170206800F049FE28466A
:10459000FEBD4FF0E0210428086903D020F004009C
:1045A0000861704740F00400FAE710B5401EB0F112
:1045B000807F01D3012010BD4FF0E02460610F2106
:1045C000601700F02DFD0020A06107202061002071
:1045D00010BD10B5040003D094F8390010B107E005
:1045E000012010BD002084F83800204600F00CF8AF
:1045F000022084F83900211D206801F05BFA0120B7
:1046000084F83900002010BD70470168CA6842F084
:104610000102CA600068016841F0010101600020E8
:104620007047704710F8391F407808437047000002
:1046300070B5026804461068D168536910F00F0F16
:1046400051D003F0010501F4907635435DD0C207E7
:1046500005D0CA0503D5E26B42F00102E2634207CE
:1046600005D5DA0703D0E26B42F00202E26382076B
:1046700005D5DA0703D0E26B42F00402E2630207D9
:1046800005D5DA0703D0E26B42F00802E263E26B81
:10469000002A34D0800604D5880602D5204601F0D1
:1046A000A9FA20684069E16BC0F3801001F00801AD
:1046B0000143204624D001F08FFA20684169490661
:1046C0001AD5416921F040014161606BA0B11B49DD
:1046D0000165606BFDF7F4FC002810D0606B016D84
:1046E000BDE87040084783060FD58B060DD52046E0
:1046F000BDE8704001F07EBA2046FFF792FF70BD22
:10470000FFF78FFF0020E06370BD030606D50B06A0
:1047100004D52046BDE8704001F008BC4006F3D542
:104720004806F1D5D168204621F04001D160202112
:1047300084F8391000F0C4F870BD0000C95B0008AF
:1047400070B5040004D094F83900002510B106E0DB
:10475000012070BD84F83850204600F023F8242052
:1047600084F839002068C16821F40051C1602046F6
:1047700001F086FA2068016921F490410161206806
:10478000416921F02A0141612068C16841F400516A
:10479000C160E563202084F8390084F83A000020E5
:1047A00070BD000010B500681A4986B088422FD14C
:1047B0001948016841F001010160006800F0010042
:1047C000059015481430016841F01001016000683F
:1047D000012100F0100005904FF4007000900220BD
:1047E000CDE90101039007200C4C04906946204656
:1047F000FEF7D6F82015009069462046FEF7D0F85F
:104800002520FEF728FD032211462520FEF72EFD68
:1048100006B010BD001001403038024000000240D8
:1048200090F83A30202B1DD1D1B1CAB190F8383070
:10483000012B17D081628285C2850021C1632222AB
:1048400080F83A2080F8381001684A6942F0010285
:104850004A610068C16841F49071C16000207047EE
:10486000012070470220704730B500681149884226
:104870000CD1114841880A0408D402464C0412782D
:104880004FF0000306D50A2A01D0438030BD41F421
:1048900000410DE00D2A09D0C1F30D04074D491C5C
:1048A00089B22A554180C729EFD830BD41F48041F3
:1048B000418030BD0010014010000020FC020020AB
:1048C0007047FEE701684A69D24352050CD46FF481
:1048D00080624A6104210164002140F8301F2022D7
:1048E0004273017301207047002070472DE9F84F93
:1048F0000446C06A1E4692460D4621680A6842F484
:1049000080620A60042807D0012805D010F5803F96
:1049100002D0206B112804D12068016841F4807115
:1049200001604FF001185346002241462046009690
:1049300000F03BF9B8BB206908F10109B0F5804FE0
:1049400012D00620216800EAD51747F0F000086170
:104950003346524608F10701204600F057F938B1B6
:10496000206C04282FD01EE0E8B240F001001FE0C8
:104970002168E8B20861334652464946204600F0B5
:1049800045F90028ECD120684169816900910168EE
:1049900041F4807101605346002241462046009652
:1049A00000F003F910B10320BDE8F88F47F0F100E3
:1049B00021680861334652464946204600F026F9F0
:1049C0000028CDD1F0E70120EEE72DE9F84F0446AD
:1049D000006889460B9D01689846174641F480613E
:1049E00001602068016841F48071016000954FF01A
:1049F000011A0022514620460A9B00F0D6F8F0BB6F
:104A0000216809F0FE0008610AF1010B2B465946A6
:104A100020460A9A00F0FAF818B1206C042812D047
:104A20003AE020684169806900902A4620460A9948
:104A300000F061F950B1206C04282DD12068016884
:104A400041F4007101600120BDE8F88FFEB2B8F1B9
:104A5000010F09D02168380A08612A4620460A99C0
:104A600000F049F90028E6D1206806612A46204670
:104A70000A9900F040F90028DDD1206800E00BE041
:104A8000016841F480710160009500225146204682
:104A90000A9B00F08AF808B10320D5E7216809F0E5
:104AA000FF0040F0010008612B46594620460A9A53
:104AB00000F0ACF80028B0D1C6E700002DE9F843BB
:104AC000044600680D46DDE90897016898461646D9
:104AD00041F4807101604B4600224FF001112046E5
:104AE000009700F062F8E8B9216805F0FE0008615F
:104AF0003B464A461849204600F088F828B1206C09
:104B000004280FD10120BDE8F8832068416980693D
:104B100000903A464946204600F0EDF820B1206C5E
:104B2000042813D00320EEE7F5B2B8F1010F09D045
:104B30002168300A08613A464946204600F0DBF811
:104B40000028ECD1206805610020DCE720680168BE
:104B500041F400710160D5E70200010070B516460E
:104B60000D4604461AE02046FFF7ACFE08B10120CE
:104B700070BD681C12D025B1FDF7FEFF801BA84256
:104B80000CD954F8400F40F0200044F810090020E0
:104B90002060202161732073032070BD206840696C
:104BA000C0434007DFD4002070BD2DE9F0471E460A
:104BB00090460D460446C1F30747DDF8209012E009
:104BC000701C10D02EB1FDF7D7FFA0EB0900B0424A
:104BD00009D9002044F8300F20216173A07320739D
:104BE0000320BDE8F0872068012F0AD0806925EAFC
:104BF00000000004000C06D000214145E0D0002058
:104C0000EFE74069F3E70121F7E700002DE9F047FE
:104C10009A4691460D46044600264FF02008C1F3FF
:104C200007472AE020684069C043400512D4206845
:104C3000016841F40071016021686FF4806048618F
:104C400004202064266384F83D8084F83C600120C1
:104C5000BDE8F087B9F1FF3F0FD0B9F1000F05D0E3
:104C6000FDF78AFFA0EB0A01494506D944F8306FE9
:104C700084F80D8026730320EAE72068012F07D00F
:104C8000D0F8180025EA00000004000CE0D0C9E7C5
:104C90004069F7E72DE9F041002590460E460446AD
:104CA000202721E04069C043C0060CD421686FF082
:104CB000100048612564256384F83D7084F83C50F9
:104CC0000120BDE8F0812EB1FDF756FFA0EB0800F2
:104CD000B04209D954F8400F40F0200044F80409CC
:104CE000677025700320ECE720684169C9434906D5
:104CF000D8D40020E5E770B516460D4604461AE004
:104D00002046FFF7DFFD08B1012070BD681C12D0FE
:104D100025B1FDF731FF801BA8420CD954F8400F94
:104D200040F0200044F81009002020602021617329
:104D30002073032070BD20684069C0430006DFD4A3
:104D4000002070BD10B50348FDF71CFFBDE8104002
:104D500000F03CB894B0012000B5184887B0017845
:104D6000002928D10121017015480021026842F470
:104D700080720260006800F4807005901048143062
:104D8000026842F4804202600068029100F48040B0
:104D900005904FF4807000900A4803910190694695
:104DA0000948FDF7FDFD0F2211461720FEF75EFAB8
:104DB0001720FEF750FA07B000BD0000AC0100203C
:104DC00030380240000021100020024010B50E488B
:104DD000FDF7F1FE002815D10B480C494FF4804235
:104DE00001600B49416000218160C0E9031241610B
:104DF0008161C161016200F00DF8BDE81040024818
:104E0000FDF7DCBE10BD000094B00120005400404E
:104E1000A0860100224810B5026886B0002142F049
:104E20000202026000681F4C00F002000590402062
:104E300000901220CDE9010102200390042004908B
:104E400069462046FDF7ACFD601500906946204696
:104E5000FDF7A6FD12481030016841F40011016011
:104E6000006800F4001005900D481038016841F406
:104E700000110160016821F4001101600022052188
:104E80001F20FEF7F3F91F20FEF7E5F900220521A8
:104E90002020FEF7EBF92020FEF7DDF906B010BD6B
:104EA00030380240000402401FB5044600208DF84F
:104EB0000C004FF47A73012203A88DE80D0013460D
:104EC0000A4621460548FDF7F1FF10B12046FFF7DD
:104ED00039FF9DF80C0004B010BD000094B0012013
:104EE0003EB51C460546069B4FF47A70082D0FD040
:104EF0000094CDE9013013460A4629460848FDF7DB
:104F0000D5FF040002D02846FFF71CFF20463EBD17
:104F10000090224629460248FDF7D4FEF1E7000042
:104F200094B0012017B583B004466423012205A87C
:104F30008DE80D0013460A4621460548FEF7B4F8F1
:104F4000002802D02046FFF7FDFE06B010BD00008D
:104F500094B001203EB5054606984FF47A74CDE929
:104F6000003013460A46029429460548FEF79CF88D
:104F7000040002D02846FFF7E5FE20463EBD0000B3
:104F800094B00120FDF7AEB8FFF7E6BEFFF71EBFF5
:104F9000FFF78ABF08B5009313460122FFF7A0FF71
:104FA00008BDFFF7BFBF08B5009313460122FFF706
:104FB000D1FF08BD174810B5026886B0002142F045
:104FC000400202600068144C00F0400005904FF46D
:104FD000A65000900120CDE901010220039069460E
:104FE0002046FDF7DDFC012240212046FDF7BEFDF5
:104FF000012280212046FDF7B9FD012291022046C1
:10500000FDF7B4FD012211032046FDF7AFFD06B008
:1050100010BD00003038024000180240FEE7704723
:105020000907090E002806DA00F00F0000F1E02061
:1050300080F8141D704700F1E02080F800147047DC
:1050400000B587B0124803906FF07F40049011487C
:105050000590114A114900208DE8070005AB04AA0C
:1050600003A90F4803F004FB0D4803F049FB0C486B
:1050700090F8330040070A4802D503F083FB01E0B3
:1050800003F044FB0749064803F074FB07B000BD7A
:10509000C0A8000AC0A800013D700008D170000837
:1050A000B002002071710008704700000148FEF74F
:1050B0009FBD000040B00120010901EB810100F01B
:1050C0000F0000EB4100C0B27047002102E00A3837
:1050D000C0B2491C0A28FAD2090740EA1160704799
:1050E00070B504460068C168490614D44FF0FF311A
:1050F000C160FDF741FD05464FF47A7607E000BF39
:10510000FDF73AFD401BB04201D9032070BD206875
:10511000C0684006F4D5002070BD000008B58DF8C9
:1051200003008DF801108DF802208DF80030002268
:1051300069460248FEF74CFE08BD000040B0012061
:1051400000B585B08DF800008DF8011000208DF8B5
:1051500002200390024604908DF80330694602480D
:10516000FEF79EFE05B000BD40B001200148FEF7ED
:1051700021BD000040B00120174810B5154901605D
:1051800000217F22C0E90112FF22C0E90321416111
:105190008161FEF7A9FD08B1022010BD00210E4873
:1051A000FEF7FDFC45F25004A04210D04023382207
:1051B0002D210E20FFF7C4FF052309220321122011
:1051C000FFF7ACFF224600210348FEF7EDFC00206C
:1051D00010BD00000028004040B001200A68426273
:1051E0004A688262D1E902231A43D1E904310B43B0
:1051F000C16A1A4321F0F7011143C16200207047D0
:105200000069C0B27047006800F0030070470000FA
:1052100008B5024908440090006808BD142C0140FC
:1052200070B50DF1100C11439CE870002343194335
:1052300029434268314347F6FF639A430A43426079
:10524000002070BD0321016000207047D0F880006D
:1052500070470A688260D1E901231A43D1E903311A
:105260000B43C1681A436FF30B011143C160002067
:105270007047000000B587B00220062104228DE8A7
:105280000700CDE903100590069012481049082246
:10529000016000214160C0E9021220220261402227
:1052A00042614FF4C072C0E906214FF4006202620D
:1052B0005200C0E909216946FEF785FE054800F065
:1052C0000BF840F2AB210348FEF71EFF07B000BD0C
:1052D000400100A060B0012010B50023012211465A
:1052E000184600F019F84FF4FA7000F0B7FE0023EA
:1052F00001220221184600F00FF8002308220321A2
:10530000184600F009F801220421BDE810404FF4CE
:105310000C730020AFF300801FB5002410B10128EA
:1053200002D002E0102400E00824CDE90014CDE909
:1053300002234FF4805269460348FEF7F7FE002827
:1053400000D0012004B010BD60B0012070B505464A
:1053500000680E460024416B11F0450FFBD0416BF5
:10536000490703D503210422826304E0416BC90786
:1053700003D001218163084670BDFFF741FFB042B1
:105380002BD1296840F2FF5088630020FFF740FFCF
:10539000284908424BD0002801DA1C2070BD41008A
:1053A00001D5092070BD810001D50A2070BDC10062
:1053B00001D50B2070BD010101D50C2070BD41014C
:1053C00001D50D2070BDC10101D50E2070BD0102B7
:1053D00001D50F2070BD410201D5102070BD8102A2
:1053E00001D5112070BDC10201D5122070BD01038D
:1053F00001D5132070BD410301D5142070BD810378
:1054000001D5152070BDC10301D5162070BD010462
:1054100001D5172070BD410401D5182070BD81044D
:1054200001D5192070BD000701D51A2070BD204696
:1054300070BD000008E0FFFD0146002009684A6BCE
:1054400012F0450FFBD04A6B520702D5032004220D
:1054500007E04A6BD20702D001208863704740F210
:10546000FF528A6370472DE9F041044600681546F3
:105470000E460027416B11F0450FFBD0416B4907E9
:1054800003D503210422826304E0416BC90704D0E1
:10549000012181630846BDE8F081FFF7B1FEB0420B
:1054A00012D1216840F2FF5088630020FFF7B0FE60
:1054B00010F4604F03D0810404D51320EBE7000CF7
:1054C000288007E0410401D51020E4E7000401D55D
:1054D0000F20E0E73846DEE70146292009684FF44F
:1054E00080324B6B13F0450F07D14B6BA2F10102D9
:1054F00013F0450F01D1002AF7D14B6BC3F38003A2
:1055000002B113B10320042204E04A6B520602D513
:10551000002040228A6370472DE9F04F91B00025AA
:105520000F46069508261021CDE900614021079518
:105530000446CDE9021508010490A8466946206892
:10554000FFF787FE10212046FFF700FF002844D117
:10555000A08C694600040090372001902068FFF776
:1055600078FE37212046FFF7F1FE002835D1401E96
:10557000CDE9080630204FF00209CDE90A090120E3
:10558000CDE90C80B246464608A92068FFF726FE02
:105590003320CDE9006069462068FFF75AFE3321C9
:1055A0002046FFF7D3FE060017D10DF1180B40F28D
:1055B0002A682068416B11EA080F08D1416B890203
:1055C000F7D5FFF743FE4BF825006D1CF1E7416B63
:1055D000090705D5C0F838A0042011B0BDE8F08F48
:1055E000416B890703D5C0F838904846F5E7416B11
:1055F000890603D5202181630620EEE7416B8905EA
:1056000004D54FF4007181630720E6E740F2FF51B3
:105610008163069800BA7860079800BA386030460F
:10562000DBE700000E4810B50C4901600021416025
:105630008160C160016141618161A0F15801FEF7A3
:10564000E7FE08B1012010BD4FF400610448FEF7E9
:1056500071FF0028F7D0022010BD0000002C01408F
:1056600098AD012070B586B004460120ADF8140055
:1056700000252068FFF7C7FD58B3206A04285DD0D5
:1056800000200221C0268DE84300039048020490C8
:1056900069462068FFF7DDFD2046FFF7CDFE0500D7
:1056A00018D1FFF7B5FDA0630420FFF7B1FDE0635B
:1056B0000820FFF7ADFD20640C20FFF7A9FD606412
:1056C000206A48B1012807D0062805D0022803D057
:1056D00011E0252006B070BD03200190402002900B
:1056E00069462068FFF7B5FD05AA03212046FFF7AC
:1056F000BAFE0500EED1206A04281FD0BDF81400C0
:105700006062000400900920CDE901066946206826
:10571000FFF79FFD2046FFF78FFE0500DAD1FFF768
:1057200077FDA0620420FFF773FDE0620820FFF719
:105730006FFD20630C20FFF76BFD60632846C9E70F
:105740002DE9F04F87B0002504468DF80050574EE4
:10575000A846A94646F8A05F0068FFF773FD012040
:10576000FCF7C0FC01273760BE02CDE90456019565
:105770000295039501A92068FFF76BFD23680021BE
:10578000B0015A6BC2F3C01204E05A6B401EC2F360
:10579000C0120CD0002AF8D048B140F2FF509863F4
:1057A0008DF800109DF8000000287AD101E0032157
:1057B000F6E74FF4D570019008204FF0400ACDE98C
:1057C000020A01A92068FFF744FD2046FFF784FE86
:1057D0008DF800009DF8000010B94FF08049276255
:1057E0003727CDE9015701A92068FFF732FD37219E
:1057F0002046FFF7ABFD8DF800009DF80000D8B300
:105800004FE00397CDE9015BCDE9045601A920687B
:10581000FFF71FFD37212046FFF798FD8DF80000A8
:105820009DF8000048BB2249CDE9045649EA010031
:1058300001902920CDE9020701A92068FFF709FDA1
:1058400020680021426B12F0450FFBD0426B5207DB
:1058500002D50321042201E040F2FF5282638DF859
:1058600000109DF8000040B90020FFF7D1FCC10FE7
:1058700008F1010805D008E000E012E0BB465746F9
:10588000BFE74FF6FF718845BBD34FF6FF729045D7
:1058900003D31B208DF8000003E0400001D5022057
:1058A00020629DF8000007B0BDE8F08F008025421F
:1058B0000000108030B589B00025044601952846C7
:1058C0000295FFF7A5FC800102D50E2009B030BD7E
:1058D00001A92046FFF720FE0028F7D10298C00357
:1058E0001FD5A08C03A9000403903720049040200A
:1058F000CDE90505000107902068FFF7AAFC3721D4
:105900002046FFF723FD0028E0D10620CDE9035013
:1059100003A92068FFF79DFC06212046FFF716FD2E
:10592000D4E72520D2E730B589B00025044601959B
:1059300028460295FFF76CFC800102D50E2009B0C5
:1059400030BD01A92046FFF7E7FD0028F7D10298F6
:10595000400320D5A08C03A90004039037200490B5
:105960004020CDE90505000107902068FFF771FC94
:1059700037212046FFF7EAFC0028E0D102200390FF
:105980000620049003A92068FFF763FC0621204647
:10599000FFF7DCFCD3E72520D1E77047FDF724BCF7
:1059A00030B5204893B00025016841F08051016076
:1059B000006800F0805011901B48016841F440419C
:1059C00001600068022400F4404011900120009022
:1059D000000401908001CDE90640192008904FF4A1
:1059E000B470CDE9090407200B906846FDF74CFF21
:1059F00000B1FEE7FDF76CFC00B1FEE70CA90F203B
:105A000081E831004FF4A0500F904FF48050109077
:105A100005210CA8FDF70AFE002800D0FEE713B010
:105A200030BD00004038024000700040104801685E
:105A300041F4700101600F48016841F0010101600B
:105A40000C4A00210832116002680B4B1A400260B8
:105A5000031D0A4A1A60026822F480220260054887
:105A60000C30016002495806803908607047000018
:105A700088ED00E000380240FFFFF6FE1030002401
:105A800010B50A4C2068C068C043C00709D1084857
:105A9000C068804721680020486221686420C8628D
:105AA000E06021686FF00100086110BD040400206F
:105AB00064000020F0B50268234B244D244E254F8E
:105AC000254C4FF0804C984209D0604507D0A84241
:105AD00005D0B04203D0B84201D0A04204D122F098
